:020000040000FA
:100000000C9466000C9442020C9469020C948300D8
:100010000C9483000C9483000C9483000C94830054
:100020000C9483000C9483000C9483000C94540172
:100030000C9483000C9483000C9483000C94830034
:100040000C945C030C9483000C9483000C94830048
:100050000C9483000C9483000C9483000C94830014
:100060000C9483000C94830000000009000302003C
:10007000000405080000000000000000000000016E
:10008000020408102040800102040810200102042C
:100090000810204080400404040404040404020204
:1000A000020202020303030303030202030000002F
:1000B0000023002600290000000000250028002B56
:1000C0000000000000240027002A000011241FBEA9
:1000D000CFEFD8E0DEBFCDBF11E0A0E0B1E0E0EAB5
:1000E000F7E002C005900D92A830B107D9F721E0E2
:1000F000A8E0B1E001C01D92A833B207E1F70E9469
:100100004D030C94CE030C94000010920801089546
:1001100083B78E7F83BF8091020190910301029784
:1001200001F180910201909103010397E1F08FEFBB
:100130000E94300280910201909103010297A9F080
:100140008091020190910301039789F08FEF50E0B5
:1001500040E065E870E00E94100281E080930801B1
:10016000089580E0E5CF81E0E3CF80E0F0CF81E04B
:10017000EECF809100019091010160E00E94F502B4
:1001800083B7816083BF8091020190910301029740
:1001900011F180910201909103010397F1F08FEF2B
:1001A0000E94300280910201909103010297B9F000
:1001B0008091020190910301039799F08FEF41E044
:1001C00050E068E870E00E94100283B7817F84608D
:1001D00083BF8895089580E0E3CF81E0E1CF80E0A0
:1001E000EECF81E0ECCF809102019091030160E0BD
:1001F0000E94B902809100019091010161E00E948A
:10020000B90280910201909103010E94230301979A
:10021000F1F4809100019091010161E00E94F502EA
:100220008091020190910301029769F0809102018F
:1002300090910301039749F08FEF50E040E069EBA4
:1002400070E00C94100280E0F8CF81E0F6CF0C94BF
:10025000B90080910201909103010E94230301974C
:1002600021F0809108018823F1F0809100019091A4
:10027000010161E00E94F502809102019091030169
:10028000029769F08091020190910301039749F070
:100290008FEF50E040E069EB70E00C94100280E0DA
:1002A000F8CF81E0F6CF08951F920F920FB60F920C
:1002B00011242F933F934F935F936F937F938F936B
:1002C0009F93AF93BF93EF93FF9380910A0187FFB2
:1002D00027C0109285001092840080910A018F5FE0
:1002E00080930A0180910A01082E000C990B20913D
:1002F00009012817190629F024F080910A018C3091
:10030000DCF18091840090918500049680329E44B7
:1003100008F47BC08091840090918500049677C09A
:1003200080910A01082E000C990B209109012817D1
:10033000190699F294F2E0910A018E2FEE0F990BB3
:10034000FC01EE0FFF1FE80FF91FE55FFE4F8081F4
:1003500086FFC3CFE0910A018E2FEE0F990BFC01AF
:10036000EE0FFF1FE80FF91FE55FFE4F808160E091
:100370008F730E94F502B1CF2091840030918500E7
:10038000E0910A018E2FEE0F990BFC01EE0FFF1F7B
:10039000E80FF91FE55FFE4F81819281820F931F65
:1003A0009093890080938800E0910A018E2FEE0FD0
:1003B000990BFC01EE0FFF1FE80FF91FE55FFE4FE1
:1003C000808186FF11C0E0910A018E2FEE0F990BFC
:1003D000FC01EE0FFF1FE80FF91FE55FFE4F808164
:1003E00061E08F730E94F502FF91EF91BF91AF9191
:1003F0009F918F917F916F915F914F913F912F913D
:100400000F900FBE0F901F90189580E29EE490937E
:100410008900809388008FEF80930A01E5CF0895CB
:100420008230E8F4E82FF0E0EE0FFF1FEC5FFE4FA4
:1004300071836083813041F0809169008C7F482B0B
:1004400040936900E89A089580916900837F440F82
:10045000551F440F551F482B40936900E99A089592
:10046000823068F4E82FF0E0813051F0E898EE0F28
:10047000FF1FEC5FFE4F8FE092E091838083089531
:10048000E998F5CF1F920F920FB60F9211242F9378
:100490003F934F935F936F937F938F939F93AF930C
:1004A000BF93EF93FF93E0910401F091050109954B
:1004B000FF91EF91BF91AF919F918F917F916F913C
:1004C0005F914F913F912F910F900FBE0F901F9012
:1004D00018951F920F920FB60F9211242F933F93EE
:1004E0004F935F936F937F938F939F93AF93BF933C
:1004F000EF93FF93E0910601F09107010995FF91B9
:10050000EF91BF91AF919F918F917F916F915F918B
:100510004F913F912F910F900FBE0F901F90189504
:10052000843081F028F48230E9F08330F9F00895C6
:10053000883071F0893091F08530B9F48091800075
:100540008F7D03C0809180008F7780938000089515
:100550008091B0008F778093B00008958091B000B3
:100560008F7DF9CF84B58F7784BD089584B58F7D55
:10057000FBCFCF93DF9390E0FC01E158FF4F249134
:100580008A569F4FFC0184918823C9F090E0880F20
:10059000991FFC01EF53FF4FA591B491FC01E95461
:1005A000FF4FC591D49161110DC09FB7F8948C9104
:1005B000209582238C938881282328839FBFDF91F5
:1005C000CF910895623051F49FB7F8943C91822FF7
:1005D000809583238C93E8812E2BEFCF8FB7F894EF
:1005E000EC912E2B2C938FBFEACF1F93CF93DF93E9
:1005F000282F30E0F901E859FF4F8491F901E158C3
:10060000FF4FD491F901EA56FF4FC491CC23A9F0D2
:10061000162F81110E949002EC2FF0E0EE0FFF1FC9
:10062000E954FF4FA591B4918FB7F894EC91111153
:1006300008C0D095DE23DC938FBFDF91CF911F914F
:100640000895DE2BF8CFCF93DF93282F30E0F90108
:10065000E859FF4F8491F901E158FF4FD491F90116
:10066000EA56FF4FC491CC23A1F081110E94900261
:10067000EC2FF0E0EE0FFF1FE355FF4FA591B49173
:10068000EC91ED2381E090E009F480E0DF91CF91DF
:10069000089580E090E0FACF08950E94A6030E949A
:1006A0004C030E94F300C0E0D0E00E942901209793
:1006B000E1F30E940000F9CF1F920F920FB60F9244
:1006C00011242F933F938F939F93AF93BF93809168
:1006D000340190913501A0913601B09137013091EC
:1006E000330126E0230F2D3768F129E8230F039605
:1006F000A11DB11D209333018093340190933501E6
:10070000A0933601B093370180912F019091300171
:10071000A0913101B09132010196A11DB11D8093CC
:100720002F0190933001A0933101B0933201BF911A
:10073000AF919F918F913F912F910F900FBE0F908E
:100740001F9018950296A11DB11DD4CF789484B541
:10075000836084BD85B5836085BDEEE6F0E0808171
:1007600081608083E1E8F0E082E0808380818160C5
:100770008083E0E8F0E0808181608083E1EBF0E05D
:10078000808184608083E0EBF0E080818160808301
:1007900086E880937A001092C1000895F894FFCF04
:0807A000070003000F02000036
:107E000001C0B7C0112484B790E89093610010922C
:107E10006100882361F0982F9A70923041F081FFC1
:107E200002C097EF94BF282E80E0C6D0E9C085E05D
:107E30008093810082E08093C00088E18093C1003C
:107E400089E18093C40086E08093C2008EE0B4D0C4
:107E5000259A84E028E13EEF91E03093850020935D
:107E6000840096BBB09BFECF1D9AA8954091C000A0
:107E700047FD02C0815089F793D0813479F490D0C6
:107E8000182FA0D0123811F480E004C088E0113817
:107E900009F083E07ED080E17CD0EECF823419F40B
:107EA00084E198D0F8CF853411F485E0FACF853598
:107EB00041F476D0C82F74D0D82FCC0FDD1F82D0DC
:107EC000EACF863519F484E085D0DECF843691F58B
:107ED00067D066D0F82E64D0D82E00E011E05801AB
:107EE0008FEFA81AB80A5CD0F80180838501FA10D8
:107EF000F6CF68D0F5E4DF1201C0FFCF50E040E0DC
:107F000063E0CE0136D08E01E0E0F1E06F0182E067
:107F1000C80ED11C4081518161E0C8012AD00E5F9A
:107F20001F4FF601FC10F2CF50E040E065E0CE01BB
:107F300020D0B1CF843771F433D032D0F82E30D086
:107F400041D08E01F80185918F0123D0FA94F11070
:107F5000F9CFA1CF853739F435D08EE11AD085E934
:107F600018D084E197CF813509F0A9CF88E024D0DB
:107F7000A6CFFC010A0167BFE895112407B600FCF3
:107F8000FDCF667029F0452B19F481E187BFE89594
:107F900008959091C00095FFFCCF8093C60008958E
:107FA0008091C00087FFFCCF8091C00084FD01C09C
:107FB000A8958091C6000895E0E6F0E098E19083EE
:107FC00080830895EDDF803219F088E0F5DFFFCF80
:107FD00084E1DFCFCF93C82FE3DFC150E9F7CF9122
:027FE000F1CFDF
:027FFE00000879
:00000001FF
