:020000040000FA
:100000000C9467000C942F060C9456060C948F00E9
:100010000C948F000C948F000C948F000C948F0024
:100020000C948F000C948F000C948F000C9411048E
:100030000C948F000C948F000C948F000C948F0004
:100040000C947D060C948F000C948F000C948F0000
:100050000C948F000C948F000C948F000C948F00E4
:100060000C948F000C948F00000000090003020024
:10007000000405080000000000000000000000016E
:10008000020408102040800102040810200102042C
:100090000810204080400404040404040404020204
:1000A000020202020303030303030202030000002F
:1000B0000023002600290000000000250028002B56
:1000C0000000000000240027002A00000904112479
:1000D0001FBECFEFD8E0DEBFCDBF11E0A0E0B1E0A2
:1000E000ECECF3E102C005900D92A631B107D9F70F
:1000F00021E0A6E1B1E001C01D92AF34B207E1F703
:1001000010E0C7E6D0E004C02197FE010E94230959
:10011000C636D107C9F70E9483080C94E4090C94F1
:10012000000010921F0110921E01089583B78E7F68
:1001300083BF80E00E941D0641E050E061E970E06D
:1001400080E00E94FD0581E090E090931F01809384
:100150001E01089583B78E7F83BF80910E01909119
:100160000F01029719F180910E0190910F010397F1
:10017000F9F08FEF0E941D0680910E0190910F0102
:100180000297C1F080910E0190910F010397A1F0A9
:100190008FEF50E040E061E970E00E94FD0581E0F2
:1001A00090E090931F0180931E01089580E0E2CFBC
:1001B00081E0E0CF80E0EDCF81E0EBCF80910C01DA
:1001C00090910D0160E00E94B2078091060190912C
:1001D000070161E00E94B20783B7816083BF80E0BE
:1001E0000E941D0650E040E066E970E080E00E9459
:1001F000FD0580910E0190910F01029711F1809100
:100200000E0190910F010397F1F08FEF0E941D06F0
:1002100080910E0190910F010297B9F080910E012B
:1002200090910F01039799F08FEF41E050E06AEA57
:1002300070E00E94FD0583B7817F846083BF88954D
:10024000089580E0E3CF81E0E1CF80E0EECF81E070
:10025000ECCF809110019091110162E00E9476072D
:1002600080910E0190910F0160E00E9476078091CD
:100270000C0190910D0161E00E94760780910601CA
:100280009091070161E00E947607809106019091AC
:10029000070160E00E94B20760910A0170910B01B2
:1002A00089E191E00E94660570E060E089E191E0FB
:1002B0000E94A105609108017091090186E191E019
:1002C0000E946605609104017091050186E191E04C
:1002D0000E94A10568EE73E080E090E00E94EC06C9
:1002E000809106019091070161E00E94B207809120
:1002F0001001909111010E94E007892BD1F481E057
:1003000090E090931F0180931E0141E050E061E96D
:1003100070E080E00E94FD0580910E0190910F0138
:100320000297A9F480E050E040E061E970E00C94AD
:10033000FD0580910E0190910F010E94E007019749
:10034000F1F210921F0110921E010C94DE008091B8
:100350000E0190910F01039711F08FEFE4CF81E030
:10036000E2CFCF92DF92EF92FF920F931F93CF9342
:10037000DF938C01C0910401D09105016B01770FCF
:10038000EE08FF080C171D07D0F480911E01909114
:100390001F010197A1F4809104019091050102973A
:1003A0009093050180930401BE0186E191E00E94D3
:1003B000A105C701B6010E94EC062297E3CFDF91A9
:1003C000CF911F910F91FF90EF90DF90CF90089504
:1003D000CF92DF92EF92FF920F931F93CF93DF9311
:1003E0008C01C0910401D09105016B01770FEE08DB
:1003F000FF08C017D107A0F4809104019091050176
:1004000002969093050180930401BE0186E191E07C
:100410000E94A105C701B6010E94EC062296E9CF11
:10042000DF91CF911F910F91FF90EF90DF90CF90D0
:10043000089565E070E08AE090E00E94B10180914B
:100440001E0190911F01892BD1F76CE070E08EE6C0
:1004500090E00C94E801CF92DF92EF92FF920F931D
:100460001F93CF93DF938C01C0911C01D0911D018C
:100470006B01770FEE08FF08C017D107D0F4809109
:100480001E0190911F010197A1F480911C01909190
:100490001D01029690931D0180931C01BE0189E10C
:1004A00091E00E94A105C701B6010E94EC062296C8
:1004B000E3CFDF91CF911F910F91FF90EF90DF90ED
:1004C000CF900895CF92DF92EF92FF920F931F93F8
:1004D000CF93DF938C01C0911C01D0911D016B0162
:1004E000770FEE08FF080C171D07E8F480911E0136
:1004F00090911F010197B9F480911C0190911D0109
:10050000029790931D0180931C0160911C017091D2
:100510001D0189E191E00E94A105C701B6010E9479
:10052000EC062297E0CFDF91CF911F910F91FF90C2
:10053000EF90DF90CF900895CF92DF92EF92FF92ED
:100540000F931F93CF93DF938C01C0911C01D09127
:100550001D016B01770FEE08FF080C171D07B8F49B
:1005600080911C0190911D01029790931D01809331
:100570001C0160911C0170911D0189E191E00E94B4
:10058000A105C701B6010E94EC062297E6CF1093A1
:100590001D0100931C01DF91CF911F910F91FF90DE
:1005A000EF90DF90CF9008956AE070E08AE090E0ED
:1005B0000E94B10161E070E081E990E00E942B02AD
:1005C00080911E0190911F01892BD1F76AE070E0A4
:1005D00090E080E00E949C026AE070E08EE690E08D
:1005E0000C94E80165E070E08AE090E00E94B101BF
:1005F00070E060E081E990E00E942B0280911E0192
:1006000090911F01892BD1F76AE070E090E080E0C3
:100610000E949C0261E070E08EE690E00C94E8019C
:10062000CF92DF92EF92FF92CF93DF9364E670E078
:100630000E94AF086B01770FEE08FF08C5E6D0E017
:1006400080911E0190911F01019731F4C701B601FD
:100650000E94EC062197A1F7DF91CF91FF90EF90D8
:10066000DF90CF9008956EE170E08AE090E00E9404
:10067000B1016EE170E086E890E00E942B0280ED0F
:1006800097E00E9410036EE170E082E390E00E9428
:10069000620270E060E081E990E00E942B028091AC
:1006A0001E0190911F01892BD1F764E170E090E069
:1006B00080E00E949C0264E170E08EE690E00C9481
:1006C000E80165E070E08AE090E00E94B10165E039
:1006D00070E08EE690E00E94E80165E070E08AE05C
:1006E00090E00E94B10165E070E08EE690E00E942B
:1006F000E80165E070E08AE090E00E94B10165E009
:1007000070E08EE690E00E94E80188EB9BE00E949A
:10071000100365E070E08AE090E00E94B10161E0C2
:1007200070E081E990E00E942B0280911E0190917F
:100730001F01892BD1F76AE070E090E080E00E9411
:100740009C026AE070E08EE690E00C94E8018091F3
:100750001001909111010E94E007892BF9F480911A
:100760001E0190911F01019709F580910C01909154
:100770000D0161E00E94B20780910601909107018E
:1007800060E00E94B20780910E0190910F010E94DB
:10079000E007019799F40E94190208C080910E01A8
:1007A00090910F010E94E0070197C9F264EF71E098
:1007B00080E090E00E94EC060C94DE0025E030E042
:1007C00040E050E061E070E080E090E00E942308AB
:1007D0006230710581059105B1F044F46130710515
:1007E0008105910519F70E943303E0CF633071054D
:1007F0008105910559F06430710581059105B1F6C7
:100800000E946103D3CF0E94D402D0CF0E94F20293
:10081000CDCF89E191E00E94CC0486E191E00C9477
:10082000CC041F920F920FB60F9211242F933F9377
:100830004F935F936F937F938F939F93AF93BF93E8
:10084000EF93FF938091210187FF27C010928500CD
:1008500010928400809121018F5F8093210180910B
:100860002101082E000C990B209120012817190650
:1008700029F024F0809121018C30DCF180918400FA
:1008800090918500049680329E4408F47BC080914C
:10089000840090918500049677C080912101082EF4
:1008A000000C990B209120012817190699F294F257
:1008B000E09121018E2FEE0F990BFC01EE0FFF1F2F
:1008C000E80FF91FEE5DFE4F808186FFC3CFE091F8
:1008D00021018E2FEE0F990BFC01EE0FFF1FE80F89
:1008E000F91FEE5DFE4F808160E08F730E94B207BA
:1008F000B1CF2091840030918500E09121018E2FAD
:10090000EE0F990BFC01EE0FFF1FE80FF91FEE5DD4
:10091000FE4F81819281820F931F90938900809373
:100920008800E09121018E2FEE0F990BFC01EE0F54
:10093000FF1FE80FF91FEE5DFE4F808186FF11C09B
:10094000E09121018E2FEE0F990BFC01EE0FFF1F9E
:10095000E80FF91FEE5DFE4F808161E08F730E940A
:10096000B207FF91EF91BF91AF919F918F917F91CE
:100970006F915F914F913F912F910F900FBE0F900C
:100980001F90189580E29EE49093890080938800E0
:100990008FEF80932101E5CFFC01909120019C30E5
:1009A00098F481E0890F809320019083892F90E053
:1009B000FC01EE0FFF1FE80FF91FEE5DFE4F8CEDFF
:1009C00095E09283818308958FEF80830895DF926D
:1009D000EF92FF920F931F93CF93DF93EC01D62EEC
:1009E0007A01890188818C3008F067C061E08D2D23
:1009F0000E9476078881282F30E0F901EE0FFF1F53
:100A0000E20FF31FEE5DFE4F9D2D9F736081607CB2
:100A1000692B608320E232E02E193F0937FF02C0C4
:100A20002D5F3F4F3595279535952795298320E6EE
:100A300039E0201B310B37FF02C02D5F3F4F35954A
:100A40002795359527952A832CE0622F0E94A308CD
:100A5000829FB001112430E020E0AB01420F531F10
:100A6000FA01EE0FFF1FE40FF51FEE5DFE4F9081C0
:100A700096FD16C02F5F3F4F2C30310571F7811165
:100A80000FC01092800082E0809381001092850058
:100A900010928400B19A80916F00826080936F0001
:100AA000E8818E2F90E0FC01EE0FFF1FE80FF91F89
:100AB000EE5DFE4F8081806480838881DF91CF91DD
:100AC0001F910F91FF90EF90DF90089520E639E09D
:100AD00040E252E00C94E704DC01EC91EC3080F54C
:100AE00011968C91119728E830E0281B310987FD79
:100AF0003395220F331F220F331F6217730784F0C1
:100B000012968C9128E532E0281B310987FD339538
:100B1000220F331F220F331F621773070CF49B0140
:100B20004FB7F8948E2F90E022503109FC01EE0F60
:100B3000FF1FE80FF91FEE5DFE4F328321834FBF89
:100B40000895AF92BF92CF92DF92EF92FF920F93F0
:100B50001F93CF93DF93EC01603282E078070CF0B3
:100B60003EC0653B710514F064EB70E0898148E894
:100B7000A42EB12CA81AB10887FDB394AA0CBB1CF3
:100B8000AA0CBB1C0B2C000CCC08DD0877FF02C0A4
:100B900070E060E0072E000C880B990B2A8108E5B5
:100BA00012E0021B110927FD1395000F111F000F02
:100BB000111F012E000C220B330B3F932F931F9319
:100BC0000F9314EBE12EF12C00E010E020E030E078
:100BD000A9010E9441080F900F900F900F90CE0135
:100BE000DF91CF911F910F91FF90EF90DF90CF9009
:100BF000BF90AF900C946C0508958230E8F4E82F14
:100C0000F0E0EE0FFF1FEE5EFE4F718360838130D8
:100C100041F0809169008C7F482B40936900E89AED
:100C2000089580916900837F440F551F440F551F1D
:100C3000482B40936900E99A0895823068F4E82FC0
:100C4000F0E0813051F0E898EE0FFF1FEE5EFE4FAE
:100C50008CEF95E0918380830895E998F5CF1F92FA
:100C60000F920FB60F9211242F933F934F935F93E0
:100C70006F937F938F939F93AF93BF93EF93FF9364
:100C8000E0911201F09113010995FF91EF91BF914D
:100C9000AF919F918F917F916F915F914F913F9114
:100CA0002F910F900FBE0F901F9018951F920F92CB
:100CB0000FB60F9211242F933F934F935F936F932F
:100CC0007F938F939F93AF93BF93EF93FF93E091A5
:100CD0001401F09115010995FF91EF91BF91AF912A
:100CE0009F918F917F916F915F914F913F912F9144
:100CF0000F900FBE0F901F9018951F920F920FB676
:100D00000F9211242F933F938F939F93AF93BF9391
:100D100080914B0190914C01A0914D01B0914E01F9
:100D200030914A0126E0230F2D3768F129E8230F7F
:100D30000396A11DB11D20934A0180934B0190930E
:100D40004C01A0934D01B0934E01809146019091CA
:100D50004701A0914801B09149010196A11DB11D23
:100D60008093460190934701A0934801B0934901B5
:100D7000BF91AF919F918F913F912F910F900FBE97
:100D80000F901F9018950296A11DB11DD4CF3FB7AB
:100D9000F8948091460190914701A0914801B0914B
:100DA000490126B5A89B05C02F3F19F00196A11D4A
:100DB000B11D3FBFBA2FA92F982F8827BC01CD01A5
:100DC000620F711D811D911D43E0660F771F881F03
:100DD000991F4A95D1F708958F929F92AF92BF9233
:100DE000CF92DF92EF92FF926B017C010E94C706C7
:100DF0004B015C01C114D104E104F104E9F00E944B
:100E000092080E94C706681979098A099B09683EF9
:100E100073408105910570F321E0C21AD108E10801
:100E2000F10888EE880E83E0981EA11CB11CC11445
:100E3000D104E104F10429F7FF90EF90DF90CF9007
:100E4000BF90AF909F908F900895789484B5836001
:100E500084BD85B5836085BDEEE6F0E0808181606C
:100E60008083E1E8F0E082E080838081816080839C
:100E7000E0E8F0E0808181608083E1EBF0E0808158
:100E800084608083E0EBF0E080818160808386E88D
:100E900080937A001092C1000895843081F028F484
:100EA0008230E9F08330F9F00895883071F08930AC
:100EB00091F08530B9F4809180008F7D03C08091DE
:100EC00080008F778093800008958091B0008F77A5
:100ED0008093B00008958091B0008F7DF9CF84B5E4
:100EE0008F7784BD089584B58F7DFBCFCF93DF933B
:100EF00090E0FC01E158FF4F24918A569F4FFC017E
:100F000084918823C9F090E0880F991FFC01EF536A
:100F1000FF4FA591B491FC01E954FF4FC591D491C5
:100F200061110DC09FB7F8948C91209582238C930A
:100F30008881282328839FBFDF91CF910895623055
:100F400051F49FB7F8943C91822F809583238C9322
:100F5000E8812E2BEFCF8FB7F894EC912E2B2C93AA
:100F60008FBFEACF1F93CF93DF93282F30E0F90193
:100F7000E859FF4F8491F901E158FF4FD491F901ED
:100F8000EA56FF4FC491CC23A9F0162F81110E947D
:100F90004D07EC2FF0E0EE0FFF1FE954FF4FA59136
:100FA000B4918FB7F894EC91111108C0D095DE235D
:100FB000DC938FBFDF91CF911F910895DE2BF8CF87
:100FC000CF93DF93282F30E0F901E859FF4F849148
:100FD000F901E158FF4FD491F901EA56FF4FC4914E
:100FE000CC23A1F081110E944D07EC2FF0E0EE0F11
:100FF000FF1FE355FF4FA591B491EC91ED2381E0E4
:1010000090E009F480E0DF91CF91089580E090E0D6
:10101000FACFCF92DF92EF92FF926B017C01C11465
:10102000D104E104F10441F00E948409A701960172
:101030000E94C3086B017C01C701B601FF90EF90CD
:10104000DF90CF900895CF92DF92EF92FF926B01E5
:101050007C01C216D306E406F50664F4CA01B901A0
:101060006C197D098E099F090E940908C60ED71EBA
:10107000E81EF91EC701B601FF90EF90DF90CF90F8
:1010800008954F925F926F927F92AF92BF92CF92EC
:10109000DF92EF92FF920F931F93CF93DF93CDB721
:1010A000DEB729013A019B01AC0124193509460933
:1010B000570989899A89AB89BC89BC01CD016A1914
:1010C0007B098C099D090E949308A80197012419A6
:1010D0003509460957090E94C308CA01B9016A0DBA
:1010E0007B1D8C1D9D1DDF91CF911F910F91FF9056
:1010F000EF90DF90CF90BF90AF907F906F905F9018
:101100004F90089508950E9425070E9482080E942A
:101110002901C0E0D0E00E94A7032097E1F30E94DC
:101120000000F9CF0895DB018F939F930E94E2089E
:10113000BF91AF91A29F800D911DA39F900DB29F73
:10114000900D11240895991B79E004C0991F9617FA
:1011500008F0961B881F7A95C9F78095089597FB2C
:10116000072E16F4009407D077FD09D00E94ED08F1
:1011700007FC05D03EF4909581959F4F089570959A
:1011800061957F4F0895052E97FB1EF400940E94F1
:10119000DA0857FD07D00E94010907FC03D04EF47E
:1011A0000C94DA0850954095309521953F4F4F4F5C
:1011B0005F4F089590958095709561957F4F8F4F03
:1011C0009F4F08950E942909A59F900DB49F900DEF
:1011D000A49F800D911D11240895AA1BBB1B51E1F2
:1011E00007C0AA1FBB1FA617B70710F0A61BB70B97
:1011F000881F991F5A95A9F780959095BC01CD013C
:101200000895A1E21A2EAA1BBB1BFD010DC0AA1F47
:10121000BB1FEE1FFF1FA217B307E407F50720F05F
:10122000A21BB30BE40BF50B661F771F881F991FDA
:101230001A9469F760957095809590959B01AC0123
:10124000BD01CF010895EE0FFF1F0590F491E02D31
:101250000994A29FB001B39FC001A39F700D811D8F
:101260001124911DB29F700D811D1124911D0895AF
:101270008F929F92AF92BF92CF92DF92EF92FF92A6
:10128000CF93DF93EC01688179818A819B8161151D
:1012900071058105910521F464E279ED8BE597E014
:1012A0002DE133EF41E050E00E94C30849015A01AB
:1012B0009B01AC01A7EAB1E40E94E2086B017C014A
:1012C000ACEEB4EFA50194010E94DF09C60ED71E53
:1012D000E81EF91EF7FE06C081E0C81AD108E10831
:1012E00080E8F80AC882D982EA82FB82C701B60187
:1012F0009F77DF91CF91FF90EF90DF90CF90BF90DD
:10130000AF909F908F9008958F929F92AF92BF92CF
:10131000CF92DF92EF92FF926091000170910101F4
:10132000809102019091030161157105810591057C
:1013300021F464E279ED8BE597E02DE133EF41E0B4
:1013400050E00E94C30849015A019B01AC01A7EA81
:10135000B1E40E94E2086B017C01ACEEB4EFA501A0
:1013600094010E94DF09C60ED71EE81EF91EF7FE83
:1013700006C081E0C81AD108E10880E8F80AC092E6
:101380000001D0920101E0920201F0920301C70135
:10139000B6019F77FF90EF90DF90CF90BF90AF9016
:1013A0009F908F9008956093000170930101809346
:1013B0000201909303010895B7FF0C94E2080E9484
:1013C000E208821B930B0895F894FFCF0100000000
:1013D0006E0008000A000900070003000200FC0577
:0213E00000000B
:107E000001C0B7C0112484B790E89093610010922C
:107E10006100882361F0982F9A70923041F081FFC1
:107E200002C097EF94BF282E80E0C6D0E9C085E05D
:107E30008093810082E08093C00088E18093C1003C
:107E400089E18093C40086E08093C2008EE0B4D0C4
:107E5000259A84E028E13EEF91E03093850020935D
:107E6000840096BBB09BFECF1D9AA8954091C000A0
:107E700047FD02C0815089F793D0813479F490D0C6
:107E8000182FA0D0123811F480E004C088E0113817
:107E900009F083E07ED080E17CD0EECF823419F40B
:107EA00084E198D0F8CF853411F485E0FACF853598
:107EB00041F476D0C82F74D0D82FCC0FDD1F82D0DC
:107EC000EACF863519F484E085D0DECF843691F58B
:107ED00067D066D0F82E64D0D82E00E011E05801AB
:107EE0008FEFA81AB80A5CD0F80180838501FA10D8
:107EF000F6CF68D0F5E4DF1201C0FFCF50E040E0DC
:107F000063E0CE0136D08E01E0E0F1E06F0182E067
:107F1000C80ED11C4081518161E0C8012AD00E5F9A
:107F20001F4FF601FC10F2CF50E040E065E0CE01BB
:107F300020D0B1CF843771F433D032D0F82E30D086
:107F400041D08E01F80185918F0123D0FA94F11070
:107F5000F9CFA1CF853739F435D08EE11AD085E934
:107F600018D084E197CF813509F0A9CF88E024D0DB
:107F7000A6CFFC010A0167BFE895112407B600FCF3
:107F8000FDCF667029F0452B19F481E187BFE89594
:107F900008959091C00095FFFCCF8093C60008958E
:107FA0008091C00087FFFCCF8091C00084FD01C09C
:107FB000A8958091C6000895E0E6F0E098E19083EE
:107FC00080830895EDDF803219F088E0F5DFFFCF80
:107FD00084E1DFCFCF93C82FE3DFC150E9F7CF9122
:027FE000F1CFDF
:027FFE00000879
:00000001FF
